{
  "_format": "hh-sol-artifact-1",
  "contractName": "Ruby",
  "sourceName": "contracts/Ruby.sol",
  "abi": [
    {
      "inputs": [],
      "stateMutability": "nonpayable",
      "type": "constructor"
    },
    {
      "anonymous": false,
      "inputs": [
        {
          "indexed": true,
          "internalType": "address",
          "name": "owner",
          "type": "address"
        },
        {
          "indexed": false,
          "internalType": "address",
          "name": "collection",
          "type": "address"
        },
        {
          "indexed": false,
          "internalType": "uint256",
          "name": "tokenId",
          "type": "uint256"
        }
      ],
      "name": "Listing",
      "type": "event"
    },
    {
      "anonymous": false,
      "inputs": [
        {
          "indexed": true,
          "internalType": "address",
          "name": "previousOwner",
          "type": "address"
        },
        {
          "indexed": true,
          "internalType": "address",
          "name": "newOwner",
          "type": "address"
        }
      ],
      "name": "OwnershipTransferred",
      "type": "event"
    },
    {
      "anonymous": false,
      "inputs": [
        {
          "indexed": true,
          "internalType": "address",
          "name": "buyer",
          "type": "address"
        },
        {
          "indexed": false,
          "internalType": "address",
          "name": "seller",
          "type": "address"
        },
        {
          "indexed": false,
          "internalType": "address",
          "name": "collection",
          "type": "address"
        },
        {
          "indexed": false,
          "internalType": "uint256",
          "name": "tokenId",
          "type": "uint256"
        }
      ],
      "name": "Purchase",
      "type": "event"
    },
    {
      "inputs": [
        {
          "internalType": "address[]",
          "name": "collections",
          "type": "address[]"
        },
        {
          "internalType": "uint256[]",
          "name": "tokenIds",
          "type": "uint256[]"
        }
      ],
      "name": "bulkPurchase",
      "outputs": [],
      "stateMutability": "payable",
      "type": "function"
    },
    {
      "inputs": [
        {
          "internalType": "address",
          "name": "",
          "type": "address"
        },
        {
          "internalType": "uint256",
          "name": "",
          "type": "uint256"
        }
      ],
      "name": "collectionBids",
      "outputs": [
        {
          "internalType": "uint256",
          "name": "user",
          "type": "uint256"
        },
        {
          "internalType": "uint256",
          "name": "price",
          "type": "uint256"
        },
        {
          "internalType": "uint256",
          "name": "expiry",
          "type": "uint256"
        },
        {
          "internalType": "bool",
          "name": "isActive",
          "type": "bool"
        }
      ],
      "stateMutability": "view",
      "type": "function"
    },
    {
      "inputs": [
        {
          "internalType": "address",
          "name": "collection",
          "type": "address"
        },
        {
          "internalType": "uint256",
          "name": "tokenId",
          "type": "uint256"
        }
      ],
      "name": "getNftListingPrice",
      "outputs": [
        {
          "internalType": "uint256",
          "name": "",
          "type": "uint256"
        }
      ],
      "stateMutability": "view",
      "type": "function"
    },
    {
      "inputs": [
        {
          "internalType": "address",
          "name": "",
          "type": "address"
        },
        {
          "internalType": "uint256",
          "name": "",
          "type": "uint256"
        }
      ],
      "name": "internalListings",
      "outputs": [
        {
          "internalType": "uint256",
          "name": "price",
          "type": "uint256"
        },
        {
          "internalType": "uint256",
          "name": "expiry",
          "type": "uint256"
        },
        {
          "internalType": "bool",
          "name": "isActive",
          "type": "bool"
        },
        {
          "internalType": "address",
          "name": "owner",
          "type": "address"
        }
      ],
      "stateMutability": "view",
      "type": "function"
    },
    {
      "inputs": [
        {
          "internalType": "address",
          "name": "collection",
          "type": "address"
        },
        {
          "internalType": "uint256",
          "name": "tokenId",
          "type": "uint256"
        }
      ],
      "name": "isListingActive",
      "outputs": [
        {
          "internalType": "bool",
          "name": "",
          "type": "bool"
        }
      ],
      "stateMutability": "view",
      "type": "function"
    },
    {
      "inputs": [
        {
          "internalType": "address",
          "name": "collection",
          "type": "address"
        },
        {
          "internalType": "uint256",
          "name": "tokenId",
          "type": "uint256"
        },
        {
          "internalType": "uint256",
          "name": "duration",
          "type": "uint256"
        },
        {
          "internalType": "uint256",
          "name": "price",
          "type": "uint256"
        }
      ],
      "name": "listInternal",
      "outputs": [],
      "stateMutability": "nonpayable",
      "type": "function"
    },
    {
      "inputs": [],
      "name": "owner",
      "outputs": [
        {
          "internalType": "address",
          "name": "",
          "type": "address"
        }
      ],
      "stateMutability": "view",
      "type": "function"
    },
    {
      "inputs": [],
      "name": "platformFeePc",
      "outputs": [
        {
          "internalType": "uint256",
          "name": "",
          "type": "uint256"
        }
      ],
      "stateMutability": "view",
      "type": "function"
    },
    {
      "inputs": [
        {
          "internalType": "address",
          "name": "collection",
          "type": "address"
        },
        {
          "internalType": "uint256",
          "name": "tokenId",
          "type": "uint256"
        }
      ],
      "name": "purchaseInternal",
      "outputs": [],
      "stateMutability": "payable",
      "type": "function"
    },
    {
      "inputs": [],
      "name": "renounceOwnership",
      "outputs": [],
      "stateMutability": "nonpayable",
      "type": "function"
    },
    {
      "inputs": [
        {
          "internalType": "address",
          "name": "newOwner",
          "type": "address"
        }
      ],
      "name": "transferOwnership",
      "outputs": [],
      "stateMutability": "nonpayable",
      "type": "function"
    }
  ],
  "bytecode": "0x608060405234801561001057600080fd5b5061002d61002261003960201b60201c565b61004160201b60201c565b60018081905550610105565b600033905090565b60008060009054906101000a900473ffffffffffffffffffffffffffffffffffffffff169050816000806101000a81548173ffffffffffffffffffffffffffffffffffffffff021916908373ffffffffffffffffffffffffffffffffffffffff1602179055508173ffffffffffffffffffffffffffffffffffffffff168173ffffffffffffffffffffffffffffffffffffffff167f8be0079c531659141344cd1fd0a4f28419497f9722a3daafe3b4186f6b6457e060405160405180910390a35050565b61208b80620001156000396000f3fe60806040526004361061009c5760003560e01c80638da5cb5b116100645780638da5cb5b1461019e578063a6cfc4c4146101c9578063d93ef754146101e5578063e7c6bc7b14610210578063e8bb81d31461024d578063f2fde38b146102695761009c565b8063118e1b6d146100a15780631baaa4d6146100e157806329465b1c146101215780633e93af061461015e578063715018a614610187575b600080fd5b3480156100ad57600080fd5b506100c860048036038101906100c3919061158c565b610292565b6040516100d89493929190611a62565b60405180910390f35b3480156100ed57600080fd5b506101086004803603810190610103919061158c565b6102fc565b6040516101189493929190611aa7565b60405180910390f35b34801561012d57600080fd5b506101486004803603810190610143919061158c565b610356565b6040516101559190611a47565b60405180910390f35b34801561016a57600080fd5b50610185600480360381019061018091906115c8565b6103b4565b005b34801561019357600080fd5b5061019c610731565b005b3480156101aa57600080fd5b506101b36107b9565b6040516101c09190611861565b60405180910390f35b6101e360048036038101906101de919061158c565b6107e2565b005b3480156101f157600080fd5b506101fa61084a565b6040516102079190611a47565b60405180910390f35b34801561021c57600080fd5b506102376004803603810190610232919061158c565b61084f565b60405161024491906118dc565b60405180910390f35b6102676004803603810190610262919061162b565b610918565b005b34801561027557600080fd5b50610290600480360381019061028b919061153a565b610a2c565b005b6008602052816000526040600020602052806000526040600020600091509150508060000154908060010154908060020160009054906101000a900460ff16908060020160019054906101000a900473ffffffffffffffffffffffffffffffffffffffff16905084565b6007602052816000526040600020818154811061031857600080fd5b9060005260206000209060040201600091509150508060000154908060010154908060020154908060030160009054906101000a900460ff16905084565b6000600860008473ffffffffffffffffffffffffffffffffffffffff1673ffffffffffffffffffffffffffffffffffffffff168152602001908152602001600020600083815260200190815260200160002060000154905092915050565b600260009054906101000a900460ff1615610404576040517f08c379a00000000000000000000000000000000000000000000000000000000081526004016103fb90611927565b60405180910390fd5b6104436040518060400160405280601181526020017f626c6f636b2074696d657374616d703a2000000000000000000000000000000081525042610b24565b61044b610bc0565b73ffffffffffffffffffffffffffffffffffffffff168473ffffffffffffffffffffffffffffffffffffffff16636352211e856040518263ffffffff1660e01b815260040161049a9190611a47565b60206040518083038186803b1580156104b257600080fd5b505afa1580156104c6573d6000803e3d6000fd5b505050506040513d601f19601f820116820180604052508101906104ea9190611563565b73ffffffffffffffffffffffffffffffffffffffff1614610540576040517f08c379a000000000000000000000000000000000000000000000000000000000815260040161053790611987565b60405180910390fd5b8373ffffffffffffffffffffffffffffffffffffffff1663e985e9c5610564610bc0565b306040518363ffffffff1660e01b815260040161058292919061187c565b60206040518083038186803b15801561059a57600080fd5b505afa1580156105ae573d6000803e3d6000fd5b505050506040513d601f19601f820116820180604052508101906105d29190611697565b610611576040517f08c379a000000000000000000000000000000000000000000000000000000000815260040161060890611a07565b60405180910390fd5b6040518060800160405280828152602001834261062e9190611b85565b8152602001600115158152602001610644610bc0565b73ffffffffffffffffffffffffffffffffffffffff16815250600860008673ffffffffffffffffffffffffffffffffffffffff1673ffffffffffffffffffffffffffffffffffffffff1681526020019081526020016000206000858152602001908152602001600020600082015181600001556020820151816001015560408201518160020160006101000a81548160ff02191690831515021790555060608201518160020160016101000a81548173ffffffffffffffffffffffffffffffffffffffff021916908373ffffffffffffffffffffffffffffffffffffffff16021790555090505050505050565b610739610bc0565b73ffffffffffffffffffffffffffffffffffffffff166107576107b9565b73ffffffffffffffffffffffffffffffffffffffff16146107ad576040517f08c379a00000000000000000000000000000000000000000000000000000000081526004016107a4906119a7565b60405180910390fd5b6107b76000610bc8565b565b60008060009054906101000a900473ffffffffffffffffffffffffffffffffffffffff16905090565b600260009054906101000a900460ff1615610832576040517f08c379a000000000000000000000000000000000000000000000000000000000815260040161082990611927565b60405180910390fd5b61083c8282610c8c565b6108468282611094565b5050565b600281565b600042600860008573ffffffffffffffffffffffffffffffffffffffff1673ffffffffffffffffffffffffffffffffffffffff1681526020019081526020016000206000848152602001908152602001600020600101541180156109105750600860008473ffffffffffffffffffffffffffffffffffffffff1673ffffffffffffffffffffffffffffffffffffffff168152602001908152602001600020600083815260200190815260200160002060020160009054906101000a900460ff165b905092915050565b600260009054906101000a900460ff1615610968576040517f08c379a000000000000000000000000000000000000000000000000000000000815260040161095f90611927565b60405180910390fd5b60005b8151811015610a275760008382815181106109af577f4e487b7100000000000000000000000000000000000000000000000000000000600052603260045260246000fd5b6020026020010151905060008383815181106109f4577f4e487b7100000000000000000000000000000000000000000000000000000000600052603260045260246000fd5b60200260200101519050610a088282610c8c565b610a128282611094565b50508080610a1f90611d46565b91505061096b565b505050565b610a34610bc0565b73ffffffffffffffffffffffffffffffffffffffff16610a526107b9565b73ffffffffffffffffffffffffffffffffffffffff1614610aa8576040517f08c379a0000000000000000000000000000000000000000000000000000000008152600401610a9f906119a7565b60405180910390fd5b600073ffffffffffffffffffffffffffffffffffffffff168173ffffffffffffffffffffffffffffffffffffffff161415610b18576040517f08c379a0000000000000000000000000000000000000000000000000000000008152600401610b0f90611947565b60405180910390fd5b610b2181610bc8565b50565b610bbc8282604051602401610b3a9291906118f7565b6040516020818303038152906040527f9710a9d0000000000000000000000000000000000000000000000000000000007bffffffffffffffffffffffffffffffffffffffffffffffffffffffff19166020820180517bffffffffffffffffffffffffffffffffffffffffffffffffffffffff8381831617835250505050611391565b5050565b600033905090565b60008060009054906101000a900473ffffffffffffffffffffffffffffffffffffffff169050816000806101000a81548173ffffffffffffffffffffffffffffffffffffffff021916908373ffffffffffffffffffffffffffffffffffffffff1602179055508173ffffffffffffffffffffffffffffffffffffffff168173ffffffffffffffffffffffffffffffffffffffff167f8be0079c531659141344cd1fd0a4f28419497f9722a3daafe3b4186f6b6457e060405160405180910390a35050565b6000600860008473ffffffffffffffffffffffffffffffffffffffff1673ffffffffffffffffffffffffffffffffffffffff168152602001908152602001600020600083815260200190815260200160002060020160019054906101000a900473ffffffffffffffffffffffffffffffffffffffff169050600860008473ffffffffffffffffffffffffffffffffffffffff1673ffffffffffffffffffffffffffffffffffffffff168152602001908152602001600020600083815260200190815260200160002060020160009054906101000a900460ff16610da4576040517f08c379a0000000000000000000000000000000000000000000000000000000008152600401610d9b906119e7565b60405180910390fd5b42600860008573ffffffffffffffffffffffffffffffffffffffff1673ffffffffffffffffffffffffffffffffffffffff16815260200190815260200160002060008481526020019081526020016000206001015411610e39576040517f08c379a0000000000000000000000000000000000000000000000000000000008152600401610e30906119c7565b60405180910390fd5b600860008473ffffffffffffffffffffffffffffffffffffffff1673ffffffffffffffffffffffffffffffffffffffff168152602001908152602001600020600083815260200190815260200160002060000154341015610ecf576040517f08c379a0000000000000000000000000000000000000000000000000000000008152600401610ec690611a27565b60405180910390fd5b8073ffffffffffffffffffffffffffffffffffffffff168373ffffffffffffffffffffffffffffffffffffffff16636352211e846040518263ffffffff1660e01b8152600401610f1f9190611a47565b60206040518083038186803b158015610f3757600080fd5b505afa158015610f4b573d6000803e3d6000fd5b505050506040513d601f19601f82011682018060405250810190610f6f9190611563565b73ffffffffffffffffffffffffffffffffffffffff1614610fc5576040517f08c379a0000000000000000000000000000000000000000000000000000000008152600401610fbc90611987565b60405180910390fd5b8273ffffffffffffffffffffffffffffffffffffffff1663e985e9c582306040518363ffffffff1660e01b815260040161100092919061187c565b60206040518083038186803b15801561101857600080fd5b505afa15801561102c573d6000803e3d6000fd5b505050506040513d601f19601f820116820180604052508101906110509190611697565b61108f576040517f08c379a000000000000000000000000000000000000000000000000000000000815260040161108690611967565b60405180910390fd5b505050565b6000600860008473ffffffffffffffffffffffffffffffffffffffff1673ffffffffffffffffffffffffffffffffffffffff168152602001908152602001600020600083815260200190815260200160002060020160019054906101000a900473ffffffffffffffffffffffffffffffffffffffff1690506000600860008573ffffffffffffffffffffffffffffffffffffffff1673ffffffffffffffffffffffffffffffffffffffff168152602001908152602001600020600084815260200190815260200160002060020160006101000a81548160ff0219169083151502179055506000600860008573ffffffffffffffffffffffffffffffffffffffff1673ffffffffffffffffffffffffffffffffffffffff16815260200190815260200160002060008481526020019081526020016000206000015490508173ffffffffffffffffffffffffffffffffffffffff166108fc6064600260646111fa9190611c66565b846112059190611c0c565b61120f9190611bdb565b9081150290604051600060405180830381858888f1935050505015801561123a573d6000803e3d6000fd5b50600460009054906101000a900473ffffffffffffffffffffffffffffffffffffffff1673ffffffffffffffffffffffffffffffffffffffff166108fc606460026112859190611bdb565b836112909190611c0c565b9081150290604051600060405180830381858888f193505050501580156112bb573d6000803e3d6000fd5b508373ffffffffffffffffffffffffffffffffffffffff166342842e0e836112e1610bc0565b866040518463ffffffff1660e01b8152600401611300939291906118a5565b600060405180830381600087803b15801561131a57600080fd5b505af115801561132e573d6000803e3d6000fd5b5050505061133a610bc0565b73ffffffffffffffffffffffffffffffffffffffff167fbc40480610324271801f09a29a01613631e1a81d2d1806f640dd6fa8c9132ca3838686604051611383939291906118a5565b60405180910390a250505050565b60008151905060006a636f6e736f6c652e6c6f679050602083016000808483855afa5050505050565b60006113cd6113c884611b11565b611aec565b905080838252602082019050828560208602820111156113ec57600080fd5b60005b8581101561141c57816114028882611492565b8452602084019350602083019250506001810190506113ef565b5050509392505050565b600061143961143484611b3d565b611aec565b9050808382526020820190508285602086028201111561145857600080fd5b60005b85811015611488578161146e8882611525565b84526020840193506020830192505060018101905061145b565b5050509392505050565b6000813590506114a181612010565b92915050565b6000815190506114b681612010565b92915050565b600082601f8301126114cd57600080fd5b81356114dd8482602086016113ba565b91505092915050565b600082601f8301126114f757600080fd5b8135611507848260208601611426565b91505092915050565b60008151905061151f81612027565b92915050565b6000813590506115348161203e565b92915050565b60006020828403121561154c57600080fd5b600061155a84828501611492565b91505092915050565b60006020828403121561157557600080fd5b6000611583848285016114a7565b91505092915050565b6000806040838503121561159f57600080fd5b60006115ad85828601611492565b92505060206115be85828601611525565b9150509250929050565b600080600080608085870312156115de57600080fd5b60006115ec87828801611492565b94505060206115fd87828801611525565b935050604061160e87828801611525565b925050606061161f87828801611525565b91505092959194509250565b6000806040838503121561163e57600080fd5b600083013567ffffffffffffffff81111561165857600080fd5b611664858286016114bc565b925050602083013567ffffffffffffffff81111561168157600080fd5b61168d858286016114e6565b9150509250929050565b6000602082840312156116a957600080fd5b60006116b784828501611510565b91505092915050565b6116c981611c9a565b82525050565b6116d881611cac565b82525050565b60006116e982611b69565b6116f38185611b74565b9350611703818560208601611ce2565b61170c81611e1c565b840191505092915050565b6000611724602c83611b74565b915061172f82611e2d565b604082019050919050565b6000611747602683611b74565b915061175282611e7c565b604082019050919050565b600061176a601a83611b74565b915061177582611ecb565b602082019050919050565b600061178d601a83611b74565b915061179882611ef4565b602082019050919050565b60006117b0602083611b74565b91506117bb82611f1d565b602082019050919050565b60006117d3601483611b74565b91506117de82611f46565b602082019050919050565b60006117f6601983611b74565b915061180182611f6f565b602082019050919050565b6000611819602783611b74565b915061182482611f98565b604082019050919050565b600061183c601083611b74565b915061184782611fe7565b602082019050919050565b61185b81611cd8565b82525050565b600060208201905061187660008301846116c0565b92915050565b600060408201905061189160008301856116c0565b61189e60208301846116c0565b9392505050565b60006060820190506118ba60008301866116c0565b6118c760208301856116c0565b6118d46040830184611852565b949350505050565b60006020820190506118f160008301846116cf565b92915050565b6000604082019050818103600083015261191181856116de565b90506119206020830184611852565b9392505050565b6000602082019050818103600083015261194081611717565b9050919050565b600060208201905081810360008301526119608161173a565b9050919050565b600060208201905081810360008301526119808161175d565b9050919050565b600060208201905081810360008301526119a081611780565b9050919050565b600060208201905081810360008301526119c0816117a3565b9050919050565b600060208201905081810360008301526119e0816117c6565b9050919050565b60006020820190508181036000830152611a00816117e9565b9050919050565b60006020820190508181036000830152611a208161180c565b9050919050565b60006020820190508181036000830152611a408161182f565b9050919050565b6000602082019050611a5c6000830184611852565b92915050565b6000608082019050611a776000830187611852565b611a846020830186611852565b611a9160408301856116cf565b611a9e60608301846116c0565b95945050505050565b6000608082019050611abc6000830187611852565b611ac96020830186611852565b611ad66040830185611852565b611ae360608301846116cf565b95945050505050565b6000611af6611b07565b9050611b028282611d15565b919050565b6000604051905090565b600067ffffffffffffffff821115611b2c57611b2b611ded565b5b602082029050602081019050919050565b600067ffffffffffffffff821115611b5857611b57611ded565b5b602082029050602081019050919050565b600081519050919050565b600082825260208201905092915050565b6000611b9082611cd8565b9150611b9b83611cd8565b9250827fffffffffffffffffffffffffffffffffffffffffffffffffffffffffffffffff03821115611bd057611bcf611d8f565b5b828201905092915050565b6000611be682611cd8565b9150611bf183611cd8565b925082611c0157611c00611dbe565b5b828204905092915050565b6000611c1782611cd8565b9150611c2283611cd8565b9250817fffffffffffffffffffffffffffffffffffffffffffffffffffffffffffffffff0483118215151615611c5b57611c5a611d8f565b5b828202905092915050565b6000611c7182611cd8565b9150611c7c83611cd8565b925082821015611c8f57611c8e611d8f565b5b828203905092915050565b6000611ca582611cb8565b9050919050565b60008115159050919050565b600073ffffffffffffffffffffffffffffffffffffffff82169050919050565b6000819050919050565b60005b83811015611d00578082015181840152602081019050611ce5565b83811115611d0f576000848401525b50505050565b611d1e82611e1c565b810181811067ffffffffffffffff82111715611d3d57611d3c611ded565b5b80604052505050565b6000611d5182611cd8565b91507fffffffffffffffffffffffffffffffffffffffffffffffffffffffffffffffff821415611d8457611d83611d8f565b5b600182019050919050565b7f4e487b7100000000000000000000000000000000000000000000000000000000600052601160045260246000fd5b7f4e487b7100000000000000000000000000000000000000000000000000000000600052601260045260246000fd5b7f4e487b7100000000000000000000000000000000000000000000000000000000600052604160045260246000fd5b6000601f19601f8301169050919050565b7f416c6c206d61726b657420696e746572616374696f6e7320617265206375726560008201527f6e746c79207061757365642e0000000000000000000000000000000000000000602082015250565b7f4f776e61626c653a206e6577206f776e657220697320746865207a65726f206160008201527f6464726573730000000000000000000000000000000000000000000000000000602082015250565b7f53656c6c657220686173207265766f6b6564206163636573732e000000000000600082015250565b7f53656c6c6572206e6f206c6f6e676572206f776e73204e46542e000000000000600082015250565b7f4f776e61626c653a2063616c6c6572206973206e6f7420746865206f776e6572600082015250565b7f4c697374696e672068617320657870697265642e000000000000000000000000600082015250565b7f4c697374696e67206e6f206c6f6e676572206163746976652e00000000000000600082015250565b7f53656c6c6572206d7573742070726f7669646520636f6c6c656374696f6e206160008201527f6363656573732e00000000000000000000000000000000000000000000000000602082015250565b7f496e636f72726563742070726963652e00000000000000000000000000000000600082015250565b61201981611c9a565b811461202457600080fd5b50565b61203081611cac565b811461203b57600080fd5b50565b61204781611cd8565b811461205257600080fd5b5056fea26469706673582212208c0a9337064c375347b342176b4691e5d5886701be4c809b53c940343ba7d6d664736f6c63430008040033",
  "linkReferences": {},
  "deployedLinkReferences": {}
}